:020000040800F2
:10000000E8040020D5000008310F0008C90D0008E1
:1000100000000000000000000000000000000000E0
:100020000000000000000000000000007B0F00083E
:100030000000000000000000790F00087D0F00089C
:10004000E7000008E7000008E7000008E7000008F4
:10005000E7000008E7000008E7000008E7000008E4
:10006000E7000008E7000008E7000008E7000008D4
:10007000E7000008E700000800000000E7000008B3
:1000800000000000E7000008000000000000000081
:10009000E700000800000000E7000008E700000893
:1000A000E7000008E7000008E7000008E700000894
:1000B000E7000008E7000008E7000008E700000884
:1000C0000348854600F0A0F800480047C91600081C
:1000D000E80400200448804704480047FEE7FEE7A4
:1000E000FEE7FEE7FEE7FEE7F90F0008C1000008A3
:1000F00030B50B46014600202022012409E00D46C0
:10010000D5409D4205D31D469540491B2546954047
:1001100040191546521E002DF1DC30BDF0B51FB45C
:100120000646002082B005464024019100901BE065
:10013000019922460F46304600F054F8049A059B78
:10014000801A994110D310461946224600F03AF819
:10015000361A8F410197224601200021009F00F0AE
:1001600031F838184D4100902046641E0028DFDC2D
:10017000019B00982946324607B0F0BD03460B4369
:100180009B0703D009E008C9121F08C0042AFAD24D
:1001900003E00B780370401C491C521EF9D27047D3
:1001A000D2B201E00270401C491EFBD2704700220F
:1001B000F6E710B513460A4604461946FFF7F0FF66
:1001C000204610BD10B5202A04DB0146203A91409C
:1001D000002010BD914020239C1A0346E3401943A0
:1001E000904010BD10B5202A04DB0846203AD040CC
:1001F000002110BD0B46D340D0402024A21A9140CC
:100200000843194610BD0000064C0125064E05E0C6
:10021000E36807CC2B430C3C98471034B442F7D327
:10022000FFF752FF681F0008881F00087047000092
:1002300070B5044600F0D6F80546601C02D00448AC
:100240000078241800F0CEF8401BA042FAD370BD0D
:1002500058000020FCB500230124A2E027462A46CE
:100260009F403A406FD04D68012D05D0022D03D03C
:10027000112D01D0122D16D185680326AC465D00E4
:10028000AE46AE406546B543AC46CE687546AE4018
:1002900065462E43866046680D79BE43ED06ED0F38
:1002A0009D4035434560C6685F000325BD40AE46AE
:1002B000AE4335468E68BE402E43C6604E68022E61
:1002C00001D0122E14D1DE08B60036180196366A17
:1002D0005D07B446EE0E0F25B54000966646AE4368
:1002E000B4460D69009EB54066462E43019D2E62C0
:1002F00006687546AE430D79AD07AD0FBD40354379
:1003000005604D68ED004BD5294D6E6B26436E633D
:100310009E08284DB6007519AC46AD689E07360F8D
:100320000F27B740BD4305273F07B84201D100273B
:1003300015E0214FB84201D1012710E01F4FB8420C
:1003400002D102270BE02BE01D4FB84201D1032759
:1003500005E01C4FB84201D1052700E00627B74051
:100360002F436546AF60184D2E684F689643FF03D4
:1003700000D516432E606E684F689643BF0300D5C4
:1003800016436E60AE684F689643FF0200D5164371
:10039000AE60EE684F689643BF0200D51643EE602C
:1003A0005B1C0A681546DA4000D057E7FCBD000028
:1003B00000100240000001400004005000080050FE
:1003C000000C0050001C005000040140006908406F
:1003D00000D001207047002A01D0816170478162FE
:1003E00070470000014880687047000058000020F6
:1003F000024881680278891881607047580000209F
:1004000010B50848002401684022114301602046CD
:1004100000F00AF8002801D0012401E000F026F8DD
:10042000204610BD0020024070B504460D4D7D20D1
:100430002978C000FFF75CFE01460B480068FFF713
:1004400057FE00F045FC002809D1042C07D20022F9
:100450002146401E00F016F800206C6070BD01209F
:1004600070BD000058000020640000200448416B6B
:10047000012211434163816B020411438163704780
:100480000010024010B500F055FD10BDF8B504464F
:100490000068614D810601D400057DD55E4E0027C0
:1004A000403EB06BC00004D4B06B31040843B0636D
:1004B00001275A480168C90511D401688215114302
:1004C0000160FFF78FFF009005E0FFF78BFF0099B9
:1004D000401A642844D851480068C005F5D53168F1
:1004E00003200005626801401040884205D10323C3
:1004F000A0681B051840884208D09003800F03288D
:1005000004D13068800301D50120F8BD286903219A
:100510000904084029D00A40824202D0227892067B
:1005200006D4A2680A4082421FD0208800051CD54C
:1005300028692A6988430121C9040A432A612A6972
:100540008A432A612861C0050FD5FFF74BFF009051
:1005500008E0FFF747FF0099411A3148814201D96D
:100560000320F8BD28698005F3D561688803800FF2
:10057000032805D132680005824301400A433260F6
:100580002869032261681204114008432861002F82
:1005900006D0B16B012000E002E000078143B163A7
:1005A0002078C00705D0E868E1688008800008432B
:1005B000E8602078800705D5E8680C218843216928
:1005C0000843E8602078400706D5E86803218902DF
:1005D000884361690843E8602078000706D5E86829
:1005E000032109038843A1690843E8602078400695
:1005F00006D5E868012189068843216A0843E86036
:100600002078000606D5E868032189048843E1695B
:100610000843E8600020F8BD401002400070004030
:1006200088130000F8B50E4605007DD053480068D9
:10063000C007C00FB0420AD25048016849084900BB
:10064000314301600068C007C00FB04271D1287803
:100650004B4C800705D5E068F0218843A968084322
:10066000E0602878C00752D06868022817D00328B5
:1006700018D02168012818D08905002959DAE168C5
:10068000890889000143E160FFF7ACFE696807460D
:10069000022912D003291CD0012926D033E0216879
:1006A0008903EAE721688901E7E74907E5E7FFF7FA
:1006B00099FEC11B3348814223D8E0680007800FB0
:1006C0000228F4D123E0FFF78DFEC11B2D488142A3
:1006D00017D8E0680007800F0328F4D117E0FFF770
:1006E00081FEC11B274881420BD8E0680007800FBC
:1006F0000128F4D10BE0FFF775FEC11B21488142B0
:1007000001D90320F8BDE0680007800FF3D11B4832
:100710000168C907C90FB1420DD9016849084900EC
:1007200031430160006800E003E0C007C00FB04241
:1007300001D00120F8BD2878400706D5E0680721E0
:1007400009028843E9680843E0602878000707D574
:10075000E0680721C90288432969C9000843E060AD
:1007600000F036F8E168084A0906090F515CC840F4
:10077000064908600020FFF757FEF8BD0020024040
:100780000010024088130000441F0008640000208D
:10079000044805490068C968044A4905490F515C85
:1007A000C840704764000020001002405D1F000830
:1007B000044805490068C968044A8904490F515C26
:1007C000C840704764000020001002405D1F000810
:1007D00010B5184AD1680C20084004280BD008280E
:1007E00010D00C2810D050680004410F0120C00325
:1007F000491C884010BD1068C00601D50E4810BDC8
:100800000E4810BD0E4810BD88020E4B000F185C3C
:100810000902D368890F491CDB0301D5084A05E0AA
:100820001268D20601D5044A00E0044A5043FFF79B
:100830005FFC10BD0010024000093D000024F400E0
:1008400000127A00541F0008FEB505007ED0FE4C51
:10085000E7680C20E668074001200004064028787D
:10086000C00747D0082F05D00C2F0AD10120000463
:10087000864206D1206880033CD568680028E5D010
:1008800038E0012069680004814203D121680143F6
:10089000216011E0052301221B0492049942216882
:1008A00002D111432160F1E78143216021680140B9
:1008B0000091206890432060686800280DD0FFF701
:1008C00091FD009005E0FFF78DFD0099401A642826
:1008D0007AD820688003F6D50CE0FFF783FD0090FE
:1008E00005E0FFF77FFD0099401A6428F0D82068E2
:1008F0008003F6D42878800755D50923E868042FAB
:100900000DD00C2F01D1002E09D000283BD021683A
:10091000994301432160FFF765FD064627E0216802
:10092000490701D5002891D061681F221202914326
:100930002A691202114361602168994301432160D1
:10094000FFF746FFE16809060A0F00E0BBE1BF4977
:10095000895CC840BE4908600020FFF765FD00289B
:1009600072D120E0FFF73EFD801B0228B0D820683E
:100970004007F7D560681F210902884329690902E9
:10098000084360600FE02068400840002060FFF7E7
:1009900029FD064604E0FFF725FD801B022897D8B5
:1009A00020684007F7D42878C0065FD5002F0CD008
:1009B000E869002849D02068FF2101310843206000
:1009C000FFF710FD06462DE0E4E02068800502D523
:1009D000E8690028A7D06068072149038843696A4D
:1009E000084360606068298C0002000A0906084319
:1009F0006060686A410B0120C003491C8840E168BF
:100A000009060A0F9149895CC84091490860002095
:100A1000FFF70AFD002817D128E0FFF7E3FC801B51
:100A20000228A3D820688005F7D56068072149030C
:100A30008843696A084360606068298C0002000A84
:100A400009060843606011E023E12168FF200130BE
:100A500081432160FFF7C6FC064604E0FFF7C2FCB5
:100A6000801B02289BD820688005F7D42878794E0F
:100A7000000724D568690028306910D00121084397
:100A80003061FFF7AFFC009005E0FFF7ABFC009989
:100A9000401A02287ED830698007F6D50FE040085A
:100AA00040003061FFF79EFC009005E0FFF79AFCE4
:100AB0000099401A02286DD830698007F6D428784A
:100AC000400764D500200290A06BC00006D4A06B44
:100AD000012109070843A063012002905E480168D4
:100AE000C90511D40168821511430160FFF77AFC32
:100AF000009005E0FFF776FC0099401A642849D879
:100B000055480068C005F5D5FF20AA68013082422B
:100B100003D131690143316111E001218902002AC9
:100B200007D005231B029A4203D132690A4332617E
:100B3000EFE7326982433261306988433061A868E7
:100B400000280ED0FFF74EFC009006E0FFF74AFCAD
:100B50000099411A414881421CD830698005F5D579
:100B60000DE0FFF73FFC009006E0FFF73BFC00992B
:100B7000411A3A4881420DD830698005F5D402986F
:100B8000002804D0A16B012000078143A1632878CD
:100B9000800600E07CE02ED53148A9694314002985
:100BA00016D0A26801210A43A260626B0A43626305
:100BB000016A19430162FFF715FC064604E0FFF7DE
:100BC00011FC801B022863D8A0688007F7D512E0CB
:100BD000A16849084900A160016A99430162FFF7D1
:100BE00001FC064604E0FFF7FDFB801B02284FD8FE
:100BF000A0688007F7D4A86A002866D00C2F4DD0D3
:100C0000012636060228206805D0B0432060FFF791
:100C1000E9FB05463EE0B0432060FFF7E3FB0746F3
:100C200004E0FFF7DFFBC01B022831D820688001F9
:100C3000F7D4296BE86AE2680843696BFD231B045B
:100C40009A43114308430DE000100240441F00087E
:100C50006400002040100240007000408813000033
:100C600000000140E060206830432060FFF7BAFBDD
:100C7000054604E0FFF7B6FB401B022808D82068B1
:100C80008001F7D521E0FFF7ADFB401B022801D919
:100C90000320FEBD20688001F5D416E00128F8D0BD
:100CA000E06801210904EA6A014091420BD10F2159
:100CB00089042A6B0140914205D10321890508402E
:100CC000696B884201D00120FEBD0020FEBD0000FE
:100CD000094910B5401E884201D9012010BD074CBA
:100CE00060610321081F00F025F90020A0610720A2
:100CF0002061002010BD0000FFFFFF0000E000E0C9
:100D000010B5040003D0606F002802D007E0012076
:100D100010BD002170200155204600F027F8242046
:100D2000606720680168490849000160204600F0BA
:100D300023FA0128ECD0606A002802D0204600F097
:100D400085F9206841680922D202914341602068F8
:100D500081682A2291438160206801680122114341
:100D60000160204600F0D8F910BD000010B586B033
:100D7000044614216846FFF71AFA11492068884290
:100D80001BD11048816B0122520411438163C16A57
:100D900001221143C162C06A6946104005900C20CF
:100DA0000090022001900020029003200390042074
:100DB000049005200007FFF74DFA06B010BD0000B3
:100DC0000044004000100240FEE70000F0B587B08C
:100DD00014216846FFF7EBF94048C16A0426314305
:100DE000C162C16A31400591C16A80221143C1626A
:100DF000C16A11400591C16A01242143C162C16ADF
:100E000021400591C16A02252943C162C16A294076
:100E10000591C26A08210A43C262C06A00220840E2
:100E200005902F492F48FFF7D6FA052000222E49BA
:100E30000007FFF7D0FA2C49002231392B48FFF781
:100E4000CAFA002204212A48FFF7C5FA600300907D
:100E5000284800270190694602972248FFF7FAF9CF
:100E60001F48694691C169461E480397FFF7F2F98A
:100E70001D48694691C10520694600070397FFF7A1
:100E8000E9F9C02000900520694601970295000706
:100E9000FFF7E0F914486946313891C169461348B3
:100EA0000397FFF7D7F980200090694601970295D4
:100EB0000C48FFF7CFF9029769460D480397009653
:100EC0000194FFF7C7F94020009069460197029509
:100ED0000648FFF7BFF907B0F0BD00000010024060
:100EE0000F1C0000000800503218000000040050E1
:100EF000000C00500000211010B50C480A49016098
:100F0000E1214902416000218160C160016181618C
:100F1000C1610C22016242614162FFF7F1FE0028CB
:100F200001D0FFF783F910BD0044004068000020A5
:100F3000704700008307FF22DB0E9A408907090EE5
:100F4000994000280BDA0007000F0838830808488A
:100F50009B001818C36993430B43C3617047830810
:100F600004489B001B18186890430843186070479A
:100F700000ED00E000E400E07047704710B5FFF7B7
:100F800037FA10BD30B59DB038216846FFF70FF92C
:100F9000142117A8FFF70BF924210EA8FFF707F972
:100FA000144801680322D2029143C21489180160D7
:100FB00009200390102004900320022500248005BE
:100FC00000950D900B940A950C946846FFF73CFC35
:100FD0000F2017900320189019941A9400211B9445
:100FE00017A8FFF71FFB0EA80E951294FFF74EFAF5
:100FF0001DB030BD007000401048016882151143DB
:101000000160C1680E4A1140C16001680D4A11407B
:1010100001608168490849008160016801229204E9
:1010200091430160C168FD2212049143C160002117
:1010300001610549C003886070470000001002404C
:101040000C40FF88F6FFF6FE00ED00E010B5818C45
:10105000C90707D001684A6801235B049A43836A81
:101060001A434A60818C890707D501684A680123C1
:101070001B049A43C36A1A434A60818C490707D507
:1010800001684A6801239B049A43036B1A434A6030
:10109000818C090707D501684A680123DB039A435D
:1010A000436B1A434A60818CC90607D50268916870
:1010B00001231B039943836B19439160818C89063B
:1010C00007D501688A6801235B039A43C36B1A43FF
:1010D0008A60818C490612D503685A680121090586
:1010E000046C8A4322435A60026C8A4207D1026828
:1010F000516803235B059943436C19435160818C0C
:10110000090607D501684A680123DB04806C9A430D
:1011100002434A6010BD0000F8B500260446C667C9
:10112000FFF760F9054620680068124F000709D5EF
:1011300001212B46002249052046009700F030F996
:1011400000280DD12068006840070BD501212B46EF
:10115000002289052046009700F022F9002801D0DE
:101160000320F8BD20206067A0676034267400204B
:10117000F8BD0000FFFFFF01F8B504462669A2682C
:10118000E76932436669102000253E4323683243F5
:1011900078491E68784F3E4016431E6023685A689F
:1011A00003263603B243E66832435A602368A269D5
:1011B0008B4201D0266A32439E680B273F02BE4312
:1011C00016439E606D4E23686D4AB3420CD1D268BF
:1011D0009207920F06D0012A38D0022A34D0032A6F
:1011E00020D11EE001201DE0664EB3420AD1D26834
:1011F0000C26324026D0042A28D0082A24D00C2AD3
:1012000010D10EE08B420DD1D66803229202164017
:1012100018D001229202B61A18D0B61A14D09642EB
:1012200000D10820564A0126403A574FF6038B4218
:1012300036D100280CD002280DD0042812D008285E
:101240001FD11CE00020EDE70220EBE70420E9E7D6
:10125000FFF79EFA08E01068C00601D5384605E0A1
:101260004A4803E0FFF7B4FA002873D062685100DF
:101270005118814205D81103814202D303E0304660
:10128000F4E7012566E0010E06025008002330183D
:101290005941FEF743FF03210902411A3C4A55E038
:1012A000E169B14232D1030000F0ABF809070A0D41
:1012B00006250606062B0600E3E7FFF769FA1CE0A1
:1012C000FFF776FA19E010686168C00602D5480891
:1012D000304A01E0304A48088018FEF709FF80B222
:1012E00001462E4A10399142CBD8511C01400007CB
:1012F000400F08432CE0FFF76BFA616840004A0892
:10130000EAE76168012248081204E5E7030000F0FB
:1013100078F809070A0D06260606062C0600B0E72F
:10132000FFF736FA1DE0FFF743FA1AE0106861682C
:10133000C00602D54808C01902E014484A0810182F
:10134000FEF7D6FE80B20146144A1039914298D871
:101350002168C8600020206660662846F8BDFFF757
:1013600037FA61684A088018EAE761684808801916
:10137000E6E7000000480040F369FFEF0038014055
:10138000401002400044004000093D000024F400E9
:10139000FFFC0F0000127A000048E801EFFF000098
:1013A000FFB581B017460E4604460A9D09E0681C49
:1013B00007D0FFF717F80499401AA8420CD8002D5F
:1013C0000AD02068C1693046884318D00020B8424E
:1013D000EDD0002005B0F0BD20680168FF22A132E9
:1013E000914301602068816849084900816020209C
:1013F0006067A0670020603420740320EAE70120C2
:10140000E5E730B47446641E2578641CAB4200D214
:101410001D46635D5B00E31830BC184702E008C856
:10142000121F08C1002AFAD170477047002001E05E
:1014300001C1121F002AFBD1704710B500221146CE
:10144000C02000F0C7F810BD10B5002211460120E1
:1014500000F0C0F810BD70B514460E460546FFF703
:10146000F3FF284600F020F9FFF7E7FF304600F0D1
:101470001BF9002C12D0012C08D0022C0DD1012117
:10148000022000F05BFC002000F008F9102102208F
:1014900000F054FC012000F001F970BD0121022090
:1014A00000F04CFC0020F6E7F8B5040021D0002243
:1014B000012505272D033F0729463846FEF78BFFF8
:1014C000012C18D000220126F60231463846FEF7DC
:1014D00082FF022C11D0002229460A4D2846FEF731
:1014E0007AFF032C0BD0002231462846FEF773FF0B
:1014F000F8BD0122DCE70122E5E70122ECE7012249
:10150000F2E700000004005070B5002405462246B2
:101510002146402000F05EF8285D0022012100F005
:1015200059F8641CE4B2072CF6D3002201211046BE
:1015300000F050F800242819C0790022012100F0A1
:1015400049F8641CE4B2072CF5D3002201211046AF
:1015500000F040F800221146104600F03BF870BD44
:1015600010B50F20FEF764FE00221146302000F077
:1015700031F80520FEF75CFE00221146302000F015
:1015800029F800221146302000F024F800221146EC
:10159000382000F01FF8002211460F2000F01AF842
:1015A00000221146062000F015F80220FEF740FE4A
:1015B00000221146012000F00DF80220FEF738FE4F
:1015C000002211460C2000F005F80220FEF730FE44
:1015D00010BD000070B516460446012955D0002202
:1015E0002B4D0121C9022846FEF7F5FE32460421A3
:1015F0002848FEF7F0FEE2070121D20F0903284632
:10160000FEF7E9FEA007C20F04212846FEF7E3FE1D
:101610006007C20F08212846FEF7DDFE20070526D9
:10162000C20F360702213046FEF7D5FEE006C20F94
:1016300010213046FEF7CFFEA006C20F012116484A
:10164000FEF7C9FE6006C20F02212846FEF7C3FE60
:10165000E20901212846FEF7BEFE0124A402002271
:1016600021462846FEF7B7FE0120FEF7E1FD0122E4
:1016700021462846FEF7AFFE0120FEF7D9FD0022E5
:1016800021462846FEF7A7FE70BD0122A8E700000C
:1016900000080050000C00500004005010B500225B
:1016A0000121FFF797FF10BD10B5044620780022F6
:1016B0000121FFF78FFF2078641C002802D02078DA
:1016C0000028F3D110BD00008AB0FEF799FEFFF7A5
:1016D00059FCFFF77BFBFFF70FFCFFF741FFFE48CC
:1016E000FFF712FF0024012501E0A642FDD02646A7
:1016F0002300FFF786FE0D0924435E89B0CFFCF07E
:10170000EFEEEDEC0800F0E70122F4A1F8A0FFF7FE
:10171000A2FE0125FF2700F02FFB06906846007E01
:10172000642806D0722802D068464776F3E7012481
:1017300000E003246846407EFE28ECD1D5E7022273
:10174000F0A1EBA0FFF787FE0225FF2700F014FBB6
:1017500006906846007E64280AD06C2804D072285F
:1017600004D068464776F1E7002402E0022400E056
:1017700003246846407EFE28E8D1B6E70022E6A1B1
:10178000DBA0FFF768FE0325FF2700F0F5FA0690BF
:101790006846007E642806D06C2802D068464776EA
:1017A000F3E7012400E003246846407EFE28ECD1E4
:1017B0009BE7DEA0E2A10322FFF74DFE0C210120F2
:1017C00000F0BCFAC4480E30405DFFF767FF05210A
:1017D000022000F0B3FA68002C18BF481830261811
:1017E000203E707FFFF75AFFB07FFFF757FF0E21B3
:1017F000022000F0A3FAB84821302418203C607F72
:10180000FFF74CFFA07F6FE2C8A0D2A10122FFF733
:1018100022FE0C21012000F091FAAF480E30405D0D
:10182000FFF73CFFFF2700F0A7FA06906846007E0E
:10183000642808D0722808D0752802D068464776F8
:10184000F1E7002402E0052400E006246846407E1B
:10185000FE28E8D149E7B5A0C3A10322FFF7FBFDAD
:101860000C21012000F06AFA9B480E30405DFFF722
:1018700015FFFF2700F080FA06906846007E752865
:1018800002D068464776F5E76846407E0024FE2889
:10189000F0D12AE7A5A0B9A10022FFF7DCFD0C21B9
:1018A000012000F04BFA8C480E30405DFFF7F6FE49
:1018B000FF2700F061FA06906846007E642810D089
:1018C0006C280CD0752808D068464776F1E700E20E
:1018D000A9E1AFE050E015E009E0002402E00424B3
:1018E00000E008246846407EFE28E2D1FDE6A8A07C
:1018F000ACA10322FFF7AFFD7D20C000FEF798FCEE
:101900000324F4E6ACA0B1A10322FFF7A4FD0F214C
:10191000012000F013FA70480E30405DFFF7BEFE64
:101920000721022000F00AFA002408AE00F024FA91
:1019300006906846407EFE28F8D0FF28F6D068461C
:10194000007E30552A20FFF7A9FE641C64B2042CE7
:10195000ECDB614A0320A9002A3289180A18203AD0
:10196000127F335C9A4201D00724C0E6401E40B289
:101970000028F3DA0924BAE68FA099A10322FFF721
:101980006AFD0F21012000F0D9F953480E30405D67
:10199000FFF784FE0E21022000F0D0F9680029181C
:1019A0004D4818300C18203C607FFFF777FEA07F71
:1019B000FFF774FE0020694688700E21022000F0B7
:1019C000BDF98CA0FFF770FE0E21022000F0B6F9E1
:1019D00000246F4600F0D0F906906846407EFE284D
:1019E000F8D0FF28F6D069468978002C01D10A2268
:1019F00050430818694688706846007E3855FFF7DE
:101A00004DFE641CE4B2022CE4D3684680782028A2
:101A1000D0D8FF2700F0B0F906906846007E642811
:101A200002D068464776F5E76846407E0A24FE28DD
:101A3000F0D15AE660A070A10322FFF70CFD0F2140
:101A4000012000F07BF924480E30405DFFF726FEB0
:101A50000E21022000F072F9680029181E4821307A
:101A60000C18203C607FFFF719FEA07FFFF716FEE1
:101A70000020694688710E21022000F05FF95DA008
:101A8000FFF712FE0E21022000F058F9002401AFEA
:101A900000F072F906906846407EFE28F8D0FF28D4
:101AA000F6D069468979002C01D10A2250430818E2
:101AB000694688716846007E3855FFF7EFFD641C63
:101AC000E4B2022CE4D3684680791128D0D8FF27ED
:101AD00000F052F9069099E02000002020202020FC
:101AE00050455246494C2031202020200000000063
:101AF000202054454D504F52495A41444F522020C6
:101B0000000000002020202050455246494C203241
:101B10002020202000000000202020205045524698
:101B2000494C2033202020200000000020202020CD
:101B300050455246494C20582020202000000000EB
:101B400041513A20585873205253463A20585873FE
:101B50000000000020202020494E494349415220E6
:101B6000202020200000000020494E4943494152D6
:101B7000204349434C4F202000000000202020201B
:101B800020454449544152202020202000000000DC
:101B9000202020202053454E484120202020202076
:101BA00000000000202020494E434F52524554412E
:101BB000202020200000000045444954415220507C
:101BC000455246494C2058200000000053454E48DD
:101BD000413A20202020202020202020000000004A
:101BE0004151554543494D454E544F3A205858733D
:101BF0000000000020200000524553465249414D4C
:101C0000454E544F3A585873000000006846007E15
:101C1000642802D0684647765AE76846407E0B241F
:101C2000FE28F9D161E534A038490322FFF713FCFF
:101C30000F21012000F082F83548405DFFF72EFDAE
:101C40000521022000F07AF868460078FFF726FDAB
:101C500068464078FFF722FD0E21022000F06EF862
:101C600068460079FFF71AFD68464079FFF716FDD0
:101C700000F082F806906846007E642807D0752838
:101C800003D0FF2069464876F2E700241CE068464E
:101C9000037968002A181E481330111820394B7731
:101CA00068464079887768468079C87768460378BF
:101CB00017480A30111820394B77684640788877E2
:101CC00068468078C8770C246846407EFE28CFD1CD
:101CD0000BE510A014A10322FFF7BDFB0921012091
:101CE00000F02CF80A48405DFFF7D8FC7D20C000CA
:101CF000FEF79EFA0424FAE453414C564152205018
:101D0000455246494C20583F00000000401B000847
:101D10002E0000202050455246494C205820534167
:101D20004C564F20000000002020202020202020A2
:101D300020202020202020200000000030B589B085
:101D40000C460546022812D8102C10D8202209492A
:101D50006846FEF713FA2801694640180019203832
:101D6000C07B8021084300221146FFF733FC09B0F5
:101D700030BD0000241F000838B53F48002400682B
:101D80003E4D009007E0002C0CD0012C25D0022CF9
:101D90003CD0032C52D068464178FF29F3D06846E6
:101DA000008838BD2046FFF77FFB204600F068F82A
:101DB000FF2805D0C100491962008918497800E060
:101DC000FF216A465170FF2905D0C000401962000A
:101DD000805C6A461070012415E02046FFF764FB22
:101DE000204600F04DF8FF2803D0C1004919C978FA
:101DF00000E0FF216A465170FF2903D0C00040195E
:101E0000807810700224FF29BFD0C8E72046FFF772
:101E10004BFB204600F034F8FF2803D0C1004919DD
:101E2000497900E0FF216A465170FF2903D0C000C4
:101E30004019007910700324FF29B0D12046FFF724
:101E400033FB204600F01CF8FF2805D0C1004919DB
:101E500062008918497800E0FF216A465170FF2925
:101E600005D0C00040196200805C6A4610700024F2
:101E7000FF2997D093E70000201F000800000020F2
:101E800070B5254DFF2480212846FEF79FFA0028D3
:101E90000AD06420FEF7CCF980212846FEF796FA96
:101EA000002836D0002434E01C4D40212846FEF79F
:101EB0008DFA00280AD06420FEF7BAF9402128469E
:101EC000FEF784FA002824D0012422E005252D07FE
:101ED00080212846FEF77AFA00280AD06420FEF70F
:101EE000A7F980212846FEF771FA002811D00224B4
:101EF0000FE040212846FEF769FA002809D0642047
:101F0000FEF796F940212846FEF760FA002800D037
:101F10000324204670BD000000080050000400505B
:101F200000FF0000808182838485868788898A8B70
:101F30008C8D8E8FC0C1C2C3C4C5C6C7C8C9CACB29
:101F4000CCCDCECF00000000000000000102030451
:101F500006070809030406080C10182030000000CA
:101F60000001020304000000881F00080000002098
:101F7000680000001C140008F01F00086800002022
:101F8000800400002C14000831013202330375FE76
:101F900034043505360664FE3707380839096CFE07
:101FA0002AFF300023FF72FE0004081F080400000F
:101FB00004021F02040030313233343536373839E9
:101FC000333220333220333220313711313711315F
:101FD0003711303030313030303230303033000073
:101FE00001000000040000000000000000002000CC
:04000005080000C12E
:00000001FF
